S01400004C4142345F477261706869632E73726563F0
S113000071C0000079C0000077C0000075C0000016
S113001073C0000071C000006FC000006DC000001C
S11300206BC0000069C0000067C0000065C000002C
S113003063C0000061C000005FC000005DC000003C
S11300405BC0000059C0000057C0000055C000004C
S113005053C0000051C000004FC000004DC000005C
S11300604BC0000049C0000047C0000045C000006C
S113007043C0000041C000003FC000003DC000007C
S11300803BC0000039C0000037C0000035C000008C
S113009033C0000031C000002FC000002DC000009C
S11300A02BC0000029C0000027C0000025C00000AC
S11300B023C0000021C000001FC000001DC00000BC
S11300C01BC0000019C0000017C0000015C00000CC
S11300D013C0000011C000000FC000000DC00000DC
S11300E00BC0000011241FBECFEFD1E2DEBFCDBF95
S11300F000E00CBF02D038C183CF7CD00F2EFFE1CB
S1130100CF2EF02D0F2EFFE3EF2EF02D0FE120EF79
S113011030E040E451E060E070E080E090E0E4D062
S1130120C12CE12C24E630E044E650E06CE870E0B9
S113013080E090E0D9D024E630E044E650E060E08E
S113014070E080E090E0D0D024E630E044EB50E072
S113015060E070E08CE890E0C7D024E630E044EB47
S113016050E06CE870E08CE890E0BED02FEF83EDB7
S113017090E3215080409040E1F700C000003AD065
S1130180BDCF88B98BB18F778BB984B38D7F84BB96
S113019084B38B7F84BB000084B3846084BB000081
S11301A0089592B988B98BB180688BB984B38D7F77
S11301B084BB84B38B7F84BB000084B3846084BB22
S11301C00000089589E2DDCF089581E1DACF089532
S11301D0CF93C82F86E3D5DF8C2F90E0E2DFCF9159
S11301E00895CF93C82F8AE3CCDF8C2F90E0D9DF1A
S11301F0CF91089583B3876083BB8AB180688AB93D
S11302008FEF81B987B984B3876084BB8BB1806871
S11302108BB984B38E7F84BB2FEF89E698E121509C
S113022080409040E1F700C0000084B3816084BB4B
S11302302FEF88E596E0215080409040E1F700C020
S11302400000C3DFBFDF88E0C3DF85E0CACF0895C5
S11302508CE297CF0895462F50E0542F4427550F32
S1130260550F550F90E2799F90011124BA01622B2A
S1130270732B9B01282BC90194CF08950F931F93CF
S1130280CF93DF93082FD92F162FC72F8AE279DF58
S11302908D2F90E086DF802F9D2F83DF8C2F90E0C1
S11302A080DF812F9C2F7DDFDF91CF911F910F91F4
S11302B008950F931F93CF93DF93082FD92F162FF1
S11302C0C72F8BE25EDF8D2F90E06BDF802F9D2F99
S11302D068DF8C2F90E065DF812F9C2F62DFDF9138
S11302E0CF911F910F9108954F925F926F927F92D9
S11302F08F929F92AF92BF92CF92EF920F93CF9330
S1130300DF934C013B0159012C01440E551EB201EF
S1130310D0DFA60CB71CB501C301B0DF99DF13C051
S1130320E3010BC08FE891E00197F1F700C00000F2
S1130330602F7E2D8C2D8FDF2196CA15DB0590F35F
S11303409FEF891A990A8414950450F3DF91CF9191
S11303500F91EF90CF90BF90AF909F908F907F9030
S10F03606F905F904F900895F894FFCFC9
S9030000FC
