:1000000071C0000079C0000077C0000075C000001A
:1000100073C0000071C000006FC000006DC0000020
:100020006BC0000069C0000067C0000065C0000030
:1000300063C0000061C000005FC000005DC0000040
:100040005BC0000059C0000057C0000055C0000050
:1000500053C0000051C000004FC000004DC0000060
:100060004BC0000049C0000047C0000045C0000070
:1000700043C0000041C000003FC000003DC0000080
:100080003BC0000039C0000037C0000035C0000090
:1000900033C0000031C000002FC000002DC00000A0
:1000A0002BC0000029C0000027C0000025C00000B0
:1000B00023C0000021C000001FC000001DC00000C0
:1000C0001BC0000019C0000017C0000015C00000D0
:1000D00013C0000011C000000FC000000DC00000E0
:1000E0000BC0000011241FBECFEFD1E2DEBFCDBF99
:1000F00000E00CBFC2D0D2C083CFE2E0F1E080814B
:100100008064808380E090E002C00000019685302A
:100110009105DCF3E2E0F1E080818F7B808308953C
:10012000E2E0F1E0408190E09C01220F331F342F88
:10013000377E2871232B20834EB19C01220F331F61
:10014000220F331F342F377F2870232B2EB924B36F
:10015000880F991F82959295907F9827807F982786
:10016000922F9F7D8072892B84BB0895843038F450
:100170008FE39FE10197F1F700C00000089587EC3D
:1001800090E00197F1F700C000000895CF93C82FC9
:10019000E2E0F1E080818F7980838C2F82958F70EF
:1001A000BFDFABDF8C2FBCDFA8DF8C2FDFDFCF9171
:1001B0000895CF93C82FE2E0F1E0808180628083D0
:1001C00080818F7B80838C2F82958F70A9DF95DF54
:1001D0008C2FA6DF92DF87EC90E00197F1F700C04B
:1001E0000000CF910895E1E0F1E08081886780838D
:1001F0008DB188608DB983B3806283BB2FEF80E7B8
:1002000092E0215080409040E1F700C0000084B3AC
:10021000806284BB8EB188608EB96FDF8FE39CE90A
:100220000197F1F700C0000068DF8FE39CE90197B8
:10023000F1F700C0000061DF8FE39CE90197F1F75F
:1002400000C0000084B38F7D84BB57DF88E29EDF4F
:1002500088E09CDF81E09ADF86E098DF8CE096CF33
:10026000089581E093DF82E091DF8DE08FCF0895E4
:10027000A0CF0895805D9DCF0895B5DFF2DF81E4C2
:10028000F7DF8CE090E0F6DF2FEF83ED90E3215075
:1002900080409040E1F700C00000F1CFF894FFCF1C
:00000001FF
